:020000040000FA
:040000001FD00CD031
:020004000000FA
:0400080004EF04F00D
:040018000CEF04F0F5
:04001C000F01A66EBC
:1000200004A01200550EA76EAA0EA76EA6820000AD
:10003000A6B2FED712000F010926D8B00A2A120074
:100040000F010C0E936EFD0E946E82828250010B96
:100050000EE00F01A66AA96AA69EA69CA6800000D3
:10006000A8480CD00F01800E6F6E00EF04F00F0156
:10007000010EA96EFE0EA86E040ED0DF0F01A96A54
:10008000FF0EA86E040ECADF056A0F010F01010EF4
:10009000A96EA69EA69CA6800000A8500C6E1C0E01
:1000A000046E0F01000E006F080E016F0F01E81EB5
:1000B0000F01056F100E026F000E036F0F0E186F09
:1000C000FF0E196FFC0E1A6F000E1B6F090E706E7B
:1000D000B80E716E050E726E0F01200E736E6F6A90
:1000E00027EF01F00F0182920F01609E040060AEC5
:1000F000FDD70F01828263A207D00F010FEE46F0F9
:10010000080E086EF46E08D00F010FEE66F0655011
:100110000F0B086EF46EE6E063B02CD010EE00F02A
:100120000F0163B2E6CFEEFF63A2EECFE6FFF42E3F
:10013000F7D763B28FD00550D8B427EF01F00F0185
:10014000010AD8B4FF000550020A03E10A6A096AED
:100150000B900550030A0DE1065009260AE10750ED
:100160000A2207E10BB005D00F01A96AA86A040EA4
:1001700055DF6AD00F010250F86EF00BF36E01509C
:10018000F76EAA6E0050F66E0F01A96E04A605D098
:1001900008500026E86A01220222300EF36003D0E4
:1001A00063B20ED014D0F350300A03E163B208D02A
:1001B0002CD0F350F00A01E095D763B231D03AD099
:1001C0000F010900F5CFEEFFF42EFAD743D004A4B7
:1001D00006D00F01F6503F0B02E1940E1FDF04B270
:1001E00033D00F01F650070B02E072EF00F0080E5B
:1001F000F46E0F01EE50F56E1EDF0D00F42EF9D7F0
:100200000A00840E0BDF09001FD00F01EE50F56EBF
:1002100012DF0C00C40E02DF0900F42EF6D714D052
:100220000F01A66AA680A8CFEEFFA94AAA2AF42E3B
:10023000F7D710D00F01EE50A86EFDDE040EEEDEF3
:10024000A94AAA2AF42EF6D704A872EF00F00F01EB
:10025000456B03D00F01080E456F40B7FED7000E67
:10026000416F080E426F140E436F0C50446F438170
:0A02700063A04391408772EF00F095
:020000040030CA
:0100010006F8
:010002001DE0
:010003000EEE
:010006009168
:010008000FE8
:010009008076
:01000A000FE6
:01000B00E014
:01000C000FE4
:01000D0040B2
:0200000400F00A
:02000000FFFE01
:00000001FF
